:100A3600252E31356600310C613CCF31804B129347
:100A460021294A4049021321014A4049046539C215
:100A560031C04908150524484049109785244A4065
:100A6600339E6138C43180000000000000008040E1
:100A76002010080402017FBFDFEFF7FBFDFE0080B8
:100A8600C0E0F0F8FCFE000103070F1F3F7F0000E7
:100A960000000000000000000000000038471C09AC
:100AA600E19F38E000001039000045C082190201BC
:100AB60045110044202A00004440822904024511C1
:100AC6000028203C780044410C49C78238F7DF10E3
:100AD600400F01E0444202482444441100284015D6
:100AE6007800444402FC2444442100448427000046
:100AF60038479C09C38439C000000000000000008C
:100B0600000000000000000000000000FFFFFFFFE3
:100B1600FFFFFFFFFFFFFFFFFFFFFFFFFFFFFFFFDF
:100B2600FFFFFFFFFFFFFFFFFFFFFFFFFFFFFFFFCF
:100B3600FFFFFFFFFFFFFFFFFFFFFFFFE0000000DB
:100B4600000000000000000000000007E0000000B8
:100B5600000000000000000000000007E0000000A8
:100B6600000000000000000000000007E000000098
:100B7600000000000000000000000007E000104038
:100B8600000000004000818000000007E00070E0E7
:100B960007FF81806003C3C01F9FC007E001FDFC03
:100BA600060181C0603FF7F830984007E00FB36F49
:100BB60087FF8070603B194C1F9FC007E00E400303
:100BC600020180006003FFC01FCDC007E00067FC84
:100BD60003FF84CFFFC3FFC000660007E001900C4F
:100BE60003730FCE6F8300C01FFFE007E001984C30
:100BF60001DE00C06103FFC001980007E0009FCC42
:100C06001F33F0C06001FFC0070F8007E000984C5B
:100C16003CE7F0C06010FF80FC01F807E0019FCCC4
:100C26000F8C70C8603FFFFEFFDFF807E001984CAD
:100C36000070E0F06020631C18D89007E0039FCC9A
:100C460007C1C1F06000C30018988007E007000CD8
:100C5600FE1F81C0600783001F9F8007E006000C0F
:100C6600000600006007030000000007E000000027
:100C7600000000000000000000000007E000000087
:100C8600000000000000000000000007E000000077
:100C9600000000000000000000000007E000000067
:100CA600000000000000000000000007E000000057
:100CB600000000000000000000000007E000000047
:100CC600000000000000000000000007E000000037
:100CD600000000000000000000000007E000000027
:100CE600000000000000000000000007E3FE22896B
:100CF600FE0000000000000000000007E20222459E
:100D0600100000000000000000000007E22247E19A
:100D16002001C21E71CF9C73E21E21C7E2FA9481A4
:100D26007C0226028A28228A06026227E222EC89AF
:100D3600440022048A28228A02042027E3FE27E5AB
:100D46007C00C204122F048BC20420C7E202448135
:100D5600440022082228888A22082027E2FAF48101
:100D66007C0022084220908822082027E28A07E198
:100D7600100222088228A08A22082227E2FA348555
:100D86005401C708F9C73E71C70871C7E402C48990
:100D9600920000000000000000000007E80E07E2D5
:100DA600300000000000000000000007E000000026
:100DB600000000000000000000000007E000000046
:100DC600000000000000000000000007E000000036
:100DD600000000000000000000000007E000000026
:100DE600000000000000000000000007E0400007CF
:100DF600FC0000000000000000000007EFFE7FC4BA
:100E0600040000000000000000000007E150404719
:100E1600FC01C21E71CF9C73E21C7047E2487FC47E
:100E2600040226028A28228A062288C7EC46404700
:100E3600FC0022048A28228A022288C7E3F07FC0A7
:100E46004000C204122F048BC21C8947E020110403
:100E5600400022082228888A22228A47E0409127D9
:100E6600FC0022084220908822228BE7EFFE5148A0
:100E7600400222088228A08A22228847E040318345
:100E8600F801C708F9C73E71C71C70E7E0401100BA
:100E9600400000000000000000000007E1C0FFEF76
:100EA600FE0000000000000000000007E000000057
:100EB600000000000000000000000007E000000045
:100EC600000000000000000000000007E000000035
:100ED600000000000000000000000007FFFFFFFF09
:100EE600FFFFFFFFFFFFFFFFFFFFFFFFFFFFFFFF0C
:100EF600FFFFFFFFFFFFFFFFFFFFFFFFFFFFFFFFFC
:100F0600FFFFFFFFFFFFFFFFFFFFFFFFFFFFFFFFEB
:100F1600FFFFFFFFFFFFFFFFFFFFFFFFFFFFFFFFDB
:100F2600FFFFFFFFFFFFFFFFFFFFFFFFFFFFFFFFCB
:100F3600FFFFFFFFFFFFFFFFFFFFFFFFE0000000D7
:100F4600000000000000000000000007E0000000B4
:100F5600000000000000000000000007E000110093
:100F6600000000000000000000000007E000110083
:100F7600000000000000000000000007E0002FE075
:100F8600000000000000000000000007E000210053
:100F9600000000000000000000000007E0006FE015
:100FA600003FF87FF0FFE1FFC3FF8007E000A920C4
:100FB600002008401080210042008007E0002FE05A
:100FC6000023C8431086210042008007E000290064
:100FD600002248449089210842108007E00025003D
:100FE600002048449089210042208007E00022002A
:100FF600002088431087213E427E8007E00025803E
:10100600002108449081210042208007E0002860EA
:10101600002108449089210842108007E000000062
:10102600002108431086210042008007E0003FE0CF
:10103600002008401080210042008007E0002220A6
:10104600003FF87FF0FFE1FFC3FF8007E0002220AA
:10105600000000000000000000000007E0003FE084
:10106600003FF87FF0FFE1FFC3FF8007E00022208A
:10107600002008401080210042008007E000222066
:10108600002088479086210042388007E0003FE034
:10109600002188441089212242448007E000222052
:1010A600002188441088211442448007E000222051
:1010B60000228847108E210842088007E00022207F
:1010C600002288409089211442108007E00040E009
:1010D6000023C8409089212242008007E0000000DA
:1010E600002088471086210042108007E000242057
:1010F600002008401080210042008007E0001240D6
:10110600003FF87FF0FFE1FFC3FF8007E00000002B
:10111600000000000000000000000007E00007E0FB
:10112600003FF87FF0FFE1FFC3FF8007E000642087
:10113600002008401080210042008007E0002420A3
:10114600002108431086210042E08007E0002420A9
:10115600002308449089210042A48007E00027E08C
:10116600002108409081210042E88007E0002A40E3
:10117600002108411086213E42108007E0003240DF
:101186000021084210812100422E8007E0002450F1
:101196000021084410892100424A8007E0000830F7
:1011A6000023884790862100420E8007E000000059
:1011B600002008401080210042008007E000000067
:1011C600003FF87FF0FFE1FFC3FF8007E0007DF0FE
:1011D600000000000000000000000007E0004510CD
:1011E600003FF87FF0FFE1FFC3FF8007E0004510F6
:1011F600002008401080210042008007E00045F0F2
:10120600002008431080210042008007E0007D1086
:10121600002468449080210842008007E0004510C1
:10122600002A88449080210842008007E00045F0AB
:10123600002E88449080213E423C8007E000451005
:10124600002A8844908C210842008007E0007D1027
:10125600002A6844908C2108423C8007E000411037
:10126600002008431080210042008007E0000210A1
:10127600002008401080210042008007E000047032
:10128600003FF87FF0FFE1FFC3FF8007E0000000AA
:10129600000000000000000000000007E000000061
:1012A600000000000000000000000007E000000051
:1012B600000000000000000000000007E000000041
:1012C600000000000000000000000007E000000031
:1012D600000000000000000000000007FFFFFFFF05
:1012E600FFFFFFFFFFFFFFFFFFFFFFFFFFFFFFFF08
:1012F600FFFFFFFFFFFFFFFFFFFFFFFFFFFFFFFFF8
:0C130600FFFFFFFFFFFFFFFFFFFFFFFFE7
:0E37DC007E047F00900000E4F0A3DFFCDEFA24
:0137EA0022BC
:043789007F0A7E0035
:10378D00EF1FAC0670011ED39400EC9400400300B3
:03379D0080EE2299
:1037A000C2B5D2B6D2B700000000E580339200C2A5
:0337B000B7A200BD
:0137B30022F3
:093707007F0F7E0012378D7F3028
:103710001237A040FBC2B5C2B6C2B700008F80000E
:0C372000000000D2B700000000C2B72279
:1035E5009000041209B612086B850D83850E82A31F
:1035F500A3E475F00112061E85F082F58312055FBE
:01360500FFC5
:103606001237A040FBD2B5C2B6C2B78F8000000009
:0A36160000D2B700000000C2B72286
:1036E100D2C6C2C7D2C77F341237101237077F0F35
:1036F1007E0012378D7F0C1237107F0F7E0012373C
:063701008D7F010237106C
:10376E007F341237101237077F0F7E0012378D7F8E
:0B377E00011237107F0F7E0002378D14
:062D47007BFF7A0F7912F8
:0F2D4D0090FFFD12099212088B90FFFC12099261
:102D5C00850D83850E82A3A3E4F0A3F07F0FFE12F2
:102D6C00378D7F34123710850D83850E82E4F08504
:102D7C000D83850E82E0FFC394205043EF2480FF27
:102D8C001237107F80123710850D83850E82A3E4D5
:102D9C00F0850D83850E82A3E0C39410500F12357D
:102DAC00E5850D83850E82A3E004F080E47F0F7E21
:102DBC000012378D850D83850E82E004F080B0857E
:102DCC000D83850E82E4F0850D83850E82E0FFC3B2
:102DDC0094205043EF2480FF1237107F8812371055
:102DEC00850D83850E82A3E4F0850D83850E82A369
:102DFC00E0C39410500F1235E5850D83850E82A328
:102E0C00E004F080E47F0F7E0012378D850D838502
:0C2E1C000E82E004F080B07F3612371008
:062E280090000702099270
:0600030075C13FB2962218
:063690009004F812088B03
:10369600E4FFFE9004F812086B8F828E8312055F9A
:1036A600B42E037F01220FBF00010EEF64144E708B
:0336B600E27F00B0
:0136B90022EE
:0F3552009004001207DF850D83850E8212080397
:10356100E4FFFE74192FF58274043EF583E4F074D0
:10357100052FF58274043EF583E4F00FBF00010EC0
:10358100EF64144E70DD9004001208280000000062
:0A359100E490042FF090040404F00D
:01359B00220D
:1032BF00EB6032EF131313541FFE75F010EDA42EB5
:1032CF00F582E435F0F583E5822400F582E5833459
:1032DF0000F583C083C082E0FEEF5407900A749319
:1032EF00FFEE4F8030EF131313541FFE75F010EDE8
:1032FF00A42EF582E435F0F583E5822400F582E50E
:10330F00833400F583C083C082E0FEEF5407900A38
:0B331F007C93FFEE5FD082D083F02291
:0527E100FA7D0AFCFF77
:1027E6009004FEEFF0A3ECF0A3EDF0A3EAF0A3EB68
:0127F600F0F2
:1027F700E4900505F0A3F0E4900503F0A3F090043E
:10280700FEE075F006A4FF900504E02FFF90050396
:10281700E035F0FE7C007D081205D2AA06AB0790D2
:102827000505E0FEA3E0FF7C007D0E1205C0EF2B3F
:10283700FFEE3AA3F0A3EFF09004FEE075F006A4D4
:10284700FF900504E02FFF900503E035F0FE7D08BB
:102857001205D274742DF582740A3CF583E493FF54
:10286700900507E0FAA3E02494F582740A3AF58309
:10287700E4935FFFC374079DFEEFA806088002C3B9
:1028870013D8FC900503601BA3E0FF9004FFA3E0AF
:102897002FFF900505A3E0FE900501A3E02EFD7B29
:1028A700018019A3E0FF9004FFA3E02FFF90050527
:1028B700A3E0FE900501A3E02EFDE4FB1232BF90DA
:1028C7000503E475F001120608C3900504E09406B9
:1028D700900503E064809480500302280590050565
:1028E700E475F001120608C3900506E09409900507
:0B28F70005E06480948050030227FE7F
:0129020022B2
:0F2C410090FFFC12099212080390FFFA120992F9
:102C50009000041209B6E4F0A3F09000061209B641
:102C60001207DF850D83850E82120803850D83858B
:102C70000E82C083C0821207DFE47B0AFAF9F812E1
:102C80000722D082D0831208039000041209B6E410
:102C900075F001120608E4FFFEFDFC850D83850E2C
:102CA000821207EBC31207C270C29000061209B667
:102CB0001207DF850D83850E82022D3B90000412E2
:102CC00009B674FFF5F012061EFED3E5F09400EE8F
:102CD00064809480406B9000041209B6E0FEA3E08B
:102CE000FF7C007D051205C090000A1209B6E0FCC9
:102CF000A3E02FFDEC3EFCC004C005E47B0AFAF91A
:102D0000F8850D83850E821207DF120722AF03902C
:102D1000000C1209B6E0FAA3E0FBD005D00412279C
:102D2000E6850D83850E82C083C0821207DFE47BB7
:102D30000AFAF9F8120722D082D083120803022C73
:012D4000BCD6
:062D410090000E02099251
:0E1D5E009004F312088B9004F6ECF0A3EDF065
:101D6C00E49004FCF0A3F09004FAF0A3F09004FAD1
:101D7C00E0FEA3E0FFC39414EE6480948040030261
:101D8C001FBD9004F312086B8F828E8312055F12B5
:101D9C00096C1FBD001F572D1F7E2E1DC9301DF154
:101DAC00311E19321E41331E69341E91351EB9364F
:101DBC001EE1371F09381F303900001FB09004FC9A
:101DCC00E0FEA3E0FF7C007D061205C09004F7E066
:101DDC002FFD9004F6E03EFC9004F8E0FAA3E0FB43
:101DEC00E4FF021FA39004FCE0FEA3E0FF7C007D57
:101DFC00061205C09004F7E02FFD9004F6E03EFCBF
:101E0C009004F8E0FAA3E0FB7F01021FA39004FC0E
:101E1C00E0FEA3E0FF7C007D061205C09004F7E015
:101E2C002FFD9004F6E03EFC9004F8E0FAA3E0FBF2
:101E3C007F02021FA39004FCE0FEA3E0FF7C007D68
:101E4C00061205C09004F7E02FFD9004F6E03EFC6E
:101E5C009004F8E0FAA3E0FB7F03021FA39004FCBC
:101E6C00E0FEA3E0FF7C007D061205C09004F7E0C5
:101E7C002FFD9004F6E03EFC9004F8E0FAA3E0FBA2
:101E8C007F04021FA39004FCE0FEA3E0FF7C007D16
:101E9C00061205C09004F7E02FFD9004F6E03EFC1E
:101EAC009004F8E0FAA3E0FB7F05021FA39004FC6A
:101EBC00E0FEA3E0FF7C007D061205C09004F7E075
:101ECC002FFD9004F6E03EFC9004F8E0FAA3E0FB52
:101EDC007F06021FA39004FCE0FEA3E0FF7C007DC4
:101EEC00061205C09004F7E02FFD9004F6E03EFCCE
:101EFC009004F8E0FAA3E0FB7F07021FA39004FC18
:101F0C00E0FEA3E0FF7C007D061205C09004F7E024
:101F1C002FFD9004F6E03EFC9004F8E0FAA3E0FB01
:101F2C007F0880739004FCE0FEA3E0FF7C007D063C
:101F3C001205C09004F7E02FFD9004F6E03EFC90F3
:101F4C0004F8E0FAA3E0FB7F09804C9004FCE0FE6F
:101F5C00A3E0FF7C007D061205C09004F7E02FFD86
:101F6C009004F6E03EFC9004F8E0FAA3E0FB7F114D
:101F7C0080259004FCE0FEA3E0FF7C007D061205AA
:101F8C00C09004F7E02FFD9004F6E03EFC9004F8BE
:101F9C00E0FAA3E0FB7F0E1227E69004FCE475F058
:101FAC00011206089004FAE475F001120608021DED
:011FBC0079AB
:011FBD002201
:1037B40090FFFD12099212088BD2A97E007F641239
:0437C40031DB80F77E
:10000E0090FFFD12099212088B7E007F641231DB85
:05001E0012000380F454
:1026B2009004001207DF850D83850E821208031233
:1026C2003561740D90042FF0850D83850E821207FB
:0726D200DF7B017A047905AA
:0C26D9009004F31208039004F712088B21
:1026E500E490042DF0A3F090042DE0FEA3E0FFC3D9
:1026F50094C8EE64809480501774FA2FF5827404A0
:102705003EF583E4F090042D75F00112060880D79C
:102715007BFF7A0A79369005C512088B9004F3126F
:1027250007DF9005C81208037B017A0479FA1219AC
:1027350040E490042DF0A3F090042DE0FEA3E0FF0B
:1027450024FAF58274043EF583E0FD9004F712083F
:102755006B8F828E83ED12059E90042DE475F0013A
:1027650012060890042DE07004A3E0641470C9906B
:10277500042DE4F0A37413F090042DE0FEA3E0FF14
:10278500C3EE6480948040539004F712086B8F82E7
:102795008E8312055FFF70028035EFB4301190040F
:1027A5002DE0FEA3E0F5828E83E412059E80209045
:1027B500042DE0FEA3E0FFF5828E8312055FB42EA3
:1027C5001A9004F712086B8F828E83E402059E909F
:0B27D500042D74FFF5F0120608809D33
:0127E00022D6
:062F140090FFEC1209928F
:102F1A001237DC12376EB2CD900405E070077B0AD7
:102F2A001227E180157B017A0479059004F8E4F010
:102F3A00A3740AF0FD7C00121D5E90042FE0FF606E
:102F4A002E7B177A007D0A7C001227E6900419E08E
:102F5A0070077B241227E180167B017A0479199085
:102F6A0004F8E4F0A37424F07D0A7C00121D5E903C
:102F7A000404E0640370517B32FA7D0AFC7F10126C
:102F8A0027E69004001207DF7B01850D83850E82F8
:102F9A00A982AA831226D9850D83850E82E0700C38
:102FAA007B32FA7D14FCFF1227E6801C7B01850D1B
:102FBA0083850E82A982AA839004F8E4F0A374326E
:102FCA00F07D147C00121D5E7B017A007900122DBF
:012FDA004DA9
:062FDB00900014020992AF
:0D255D009004F5EDF09004F3EEF0A3EFF024
:10256A0064014E6003022607A3E0FEB43011900412
:10257A0005E0FF6007B42D07A3E070037F0122EE98
:10258A00B42E0E900405E0B42D07A3E07003743056
:10259A00F09004F5E0B42E09900405E0700374305D
:1025AA00F09004F5E0B42E0F7B017A047905123617
:1025BA0090EF60037F0122E49004F6F0A3F0900408
:1025CA00F6E0FEA3E0FFC39414EE94004003022653
:1025DA00AF74052FF58274043EF583E070139004FE
:1025EA00F5E0FFA3E0FCA3E02405F58274040226CB
:1025FA009B9004F6E475F00112060880C19004F37A
:10260A00E07004A3E0640260030226AF9004F5E0E0
:10261A00FEB43011900405E0FF6007B42D07A3E073
:10262A0070037F0122EEB42E0E900419E0B42D0738
:10263A00A3E070037430F09004F5E0B42E0990041E
:10264A0019E070037430F09004F5E0B42E0F7B01AA
:10265A007A047919123690EF60037F0122E490041C
:10266A00F6F0A3F09004F6E0FEA3E0FFC39414EEA4
:10267A009400503174192FF58274043EF583E0708A
:10268A00189004F5E0FFA3E0FCA3E02419F5827496
:10269A00043CF583EFF07F01229004F6E475F00123
:0726AA0012060880BF7F004B
:0126B1002206
:10339000EF64014E702AFC7D0174052DF5827404E2
:1033A0003CF583E0700974042DF5827404802E0DC1
:1033B000BD00010CED64144C70DFE4900418F022A1
:1033C000EF64024E702DFC7D0174192DF58274049A
:1033D0003CF583E0700D74182DF58274043CF58380
:1033E000E4F0220DBD00010CED64144C70DBE490A0
:0333F000042CF0BA
:0133F30022B7
:102A210090042FE024F5604514606A147003022AB3
:102A3100BD24FE7003022AE4147003022B1724063E
:102A41006003022B287B017A04791912359CC0049A
:102A5100C005C006C0077B017A04790512359CD0F8
:102A610003D002D001D00012002D022B207B017A6D
:102A710004791912359CC004C005C006C0077B014A
:102A81007A04790512359CD003D002D001D000120E
:102A91000029022B207B017A04791912359CC0048C
:102AA100C005C006C0077B017A04790512359CD0A8
:102AB10003D002D001D00012011E80637B017A0491
:102AC100791912359CC004C005C006C0077B017A84
:102AD10004790512359CD003D002D001D000120236
:102AE10027803C7B017A04791912359C120302C0BC
:102AF10006C0077B017A04790512359C120302ADE9
:102B010007AC06D007D006CFCDCFCECCCE1205D2A2
:102B1100EC1202C980097B017A04790512359C9077
:102B21000400120803800A900400120828C2C6009B
:082B3100009004047403F0227B
:0613120090FFF7120992A2
:10131800900404E070030218D5C2B2D2B3D2B4D29A
:10132800B520A23412378930A2030218D520A209A9
:101338007E007F011231DB80F4900404E0FF640139
:101348006004EFB402057E00123390900404E0B408
:101358000303123561122F1420A15312378930A1CB
:10136800030218D520A1097E007F011231DB80F429
:10137800900404E0FFB4010890042F740DF0802558
:10138800EF64027016900419E0700890042F740D31
:10139800F08018122A211226B2800A900404E0B4C0
:1013A80003091226B29004047402F0122F1420A02C
:1013B8003612378930A0030218D520A0097E007F95
:1013C800011231DB80F4900404E0B40303123561A8
:1013D800900404E0FF64016004EFB402077E007D1E
:1013E8003912255D122F1420B03612378930B00318
:1013F8000218D520B0097E007F011231DB80F490FD
:101408000404E0B40303123561900404E0FF6401AE
:101418006004EFB402077E007D3812255D122F1498
:1014280020B13612378930B1030218D520B1097EB0
:10143800007F011231DB80F4900404E0B40303124E
:101448003561900404E0FF64016004EFB402077E94
:10145800007D3712255D122F14D2B2C2B3D2B4D296
:10146800B520A225122D4712378930A2030218D5BC
:1014780020A2097E007F011231DB80F4900404E091
:10148800B40303123561122F1420A160123789307A
:10149800A1030218D520A1097E007F011231DB804B
:1014A800F4900404E0FFB4010890042F740CF08059
:1014B80032EF6402701B900419E0700890042F74D6
:1014C8000CF08025122A21123552740C1226C6807F
:1014D80012900404E0B4031112355290042F740CD6
:1014E8001226C99004047402F0122F1420A0361298
:1014F800378930A0030218D520A0097E007F011289
:1015080031DB80F4900404E0B403031235619004E5
:1015180004E0FF64016004EFB402077E007D361228
:10152800255D122F1420B03612378930B003021807
:10153800D520B0097E007F011231DB80F4900404CD
:10154800E0B40303123561900404E0FF6401600411
:10155800EFB402077E007D3512255D122F1420B1ED
:101568003612378930B1030218D520B1097E007FC1
:10157800011231DB80F4900404E0B40303123561F6
:10158800900404E0FF64016004EFB402077E007D6C
:101598003412255D122F14D2B2D2B3C2B4D2B52000
:1015A800A26312378930A2030218D520A2097E004F
:1015B8007F011231DB80F4900404E0FFB40108904D
:1015C800042F740FF08035EF6402701E900419E048
:1015D800700890042F740FF08028122A21123552B7
:1015E80090042F740F1226C98012900404E0B403EB
:1015F8001112355290042F740F1226C990040474E6
:1016080002F0122F1430A10302169412378930A168
:10161800030218D520A1097E007F011231DB80F476
:10162800900404E0FF64017025A3E0FEB42D0BA331
:10163800E07007900405F0021691EE700990040519
:10164800742DF002169190042F740BF08035EF641E
:1016580002701E900419E0700890042F740BF0803B
:1016680028122A2112355290042F740B1226C98091
:1016780012900404E0B4031112355290042F740B35
:101688001226C99004047402F0122F1420A03612F6
:10169800378930A0030218D520A0097E007F0112E7
:1016A80031DB80F4900404E0B40303123561900444
:1016B80004E0FF64016004EFB402077E007D33128A
:1016C800255D122F1420B03612378930B003021866
:1016D800D520B0097E007F011231DB80F49004042C
:1016E800E0B40303123561900404E0FF6401600470
:1016F800EFB402077E007D3212255D122F1420B14F
:101708003612378930B1030218D520B1097E007F1F
:10171800011231DB80F4900404E0B4030312356154
:10172800900404E0FF64016004EFB402077E007DCA
:101738003112255D122F14D2B2D2B3D2B4C2B53051
:10174800A2030217E512378930A2030218D520A296
:10175800097E007F011231DB80F4900404E0B401BB
:101768000FA3E070030218D590042F7410F080675F
:10177800900404E0B4020B900419E070030218D539
:101788008055900404E0640370509004001207DF51
:10179800850D83850E821208037B017A047919125C
:1017A800359C9000041209B612080390042FE0FF3C
:1017B8009000081209B6EFF012356190000812097E
:1017C800B6E01226C69000041209B61207DF7B01A4
:1017D8007A0479191226D9122A21122F1420A1630A
:1017E80012378930A1030218D520A1097E007F0194
:1017F8001231DB80F4900404E0FFB4010890042F58
:10180800740AF08035EF6402701E900419E07008C5
:1018180090042F740AF08028122A2112355290045D
:101828002F740A1226C98012900404E0B40311121E
:10183800355290042F740A1226C99004047402F0D9
:10184800122F1420A03612378930A0030218D52091
:10185800A0097E007F011231DB80F4900404E0B41B
:101868000303123561900404E0FF64016004EFB4DF
:1018780002077E007D2E12255D122F1420B0331230
:10188800378920B04820B0097E007F011231DB8003
:10189800F4900404E0B40303123561900404E0FFFB
:1018A80064016004EFB402077E007D3012255D12EA
:1018B8002F1420B11812378920B11220B1097E00E7
:0D18C8007F011231DB80F4123561122F1404
:0618D500900009020992D7
:10365B0090FFFD12099212088B7BFF7A0B791212E5
:10366B002D4D7E007FC81231DB122D477E007FC8A7
:10367B001231DB123561122F141213127E007F0AE6
:05368B001231DB80F4A8
:1030A8001223AC5389F0438901D28CE4F594F5934B
:1030B800F592F591F596F595F5B2F5B1F5B4F5B348
:1030C8001236E112376E1200031237DC90FFFF123E
:1030D8000992E4F07B017A04793090FFFD1209929D
:1030E80012088B7B007A00790090FFFD120992127A
:1030F800088B7BFF7A3779B412290390FFFF1209F6
:10310800927401F0FB7A04797190FFFD1209921212
:10311800088B7B007A00790090FFFD120992120853
:103128008B7BFF7A00790E12290390FFFF12099218
:103138007402F07B017A0479B290FFFD12099212B1
:10314800088B7B007A00790090FFFD120992120823
:0D3158008B7BFF7A36795B1229030233F47A
:030000000237F9CB
:0C37F900750D04750E0075814F0230A89C
:102B39000102040810204080000001000200010089
:102B4900030001000200010004000100020001006D
:102B5900030001000200010005000100020001005C
:102B6900030001000200010004000100020001004D
:102B7900030001000200010006000100020001003B
:102B8900030001000200010004000100020001002D
:102B9900030001000200010005000100020001001C
:102BA900030001000200010004000100020001000D
:102BB90003000100020001000700010002000100FA
:102BC90003000100020001000400010002000100ED
:102BD90003000100020001000500010002000100DC
:102BE90003000100020001000400010002000100CD
:102BF90003000100020001000600010002000100BB
:102C090003000100020001000400010002000100AC
:102C1900030001000200010005000100020001009B
:102C2900030001000200010004000100020001008C
:082C390003000100020001008C
:0623AC0090FFF5120992FA
:1023B200120009E4782EF67824F6784DF67823F6A2
:1023C200784912080F00000000784512080F00003B
:1023D2000000E47822F67B017A0679ED850D83858B
:1023E2000E82A3A312088B850D83850E82E4F0A3CF
:1023F200F0850D83850E82E0FEA3E0C39401EE9486
:10240200005021850D83850E82A3A3E475F001128D
:102412000874E412058C850D83850E8275F0011215
:10242200060880CDE4784EF608F6FBFAF9782F120A
:102432000862782B1208627825120862850D83855E
:102442000E82E4F0A3F0850D83850E82E0FEA3E008
:10245200FFC39406EE940050207B007A007900EFCF
:1024620075F003A42432F8120862850D83850E826A
:10247200E475F00112060880CD7B017A0579F290AD
:1024820000051209B612088B7B017A0679039000C7
:10249200081209B612088B850D83850E82E4F0A31B
:1024A200F0850D83850E82E0FEA3E0C3940AEE94CC
:1024B2000050499000081209B612086BC003C0020E
:1024C200C0019000051209B612086B9000031209B0
:1024D200139000051209B6A3E475F01112060890D4
:1024E20000081209B6A3E475F011120608850D83DF
:1024F200850E82E475F00112060880A57B007A0041
:102502007900C003C002C0019000051209B612088A
:102512006B9000031209137B017A0579F278281275
:10252200086290FFFF1209927405F07B017A067926
:10253200AD90FFFD12099212088B7B007A007900A0
:1025420090FFFD12099212088B7BFF7A36792012D6
:05255200290312000A3C
:0625570090000B02099246
:0E37EB00C2AF782EE6C394FF500106D2AF2283
:10324F00C2AF782EE6D39400400116782EE6705D5B
:10325F007824E670587822E6902B41937844F6E66E
:10326F00FF24EDF582E43406F583E0902B4193FEC5
:10327F00EF33333354F8FFEE2FFF784FF618E66F26
:10328F00602B08E675F003A42432F8120859782F42
:10329F0012086278451207D3EF2401FFE43EFEE4E3
:1032AF003DFDE43CFC78451207F7123805D2AF22FA
:0633F40090FFFE12099299
:1033FA007823E6705118E6902B4193850D83850E4C
:10340A0082F0E0FF24EDF582E43406F583E0902BA8
:10341A004193850D83850E82A3F0EF33333354F83D
:10342A00FF850D83850E82A3E02F784FF618F67577
:10343A00F003A42432F8120859782F120862782B64
:06344A001208621234AE0C
:0634500090000202099247
:062FE10090FFFD120992B1
:102FE7001238107825120859850D83850E8212082C
:102FF7008B850D83850E8212086B90000C12055F7E
:10300700640570030230A2C2AF900009120634456E
:10301700F0606B850D83850E8212086B9000097432
:10302700FFF5F012066C45F0705490000B12055F27
:1030370020E33890001012055F782246F690000EC4
:1030470012055F24EDF582E43406F583C083C08260
:10305700E0FF850D83850E8212086B90000F120525
:103067005FFEEF4ED082D083F08013850D83850EEF
:103077008212086B900009E475F0011206B9850DFC
:1030870083850E8212086B9000031208E3850D8377
:0B309700850E8212088BD2AF022FF8CA
:0630A200900003020992F8
:0631650090FFFF12099229
:10316B00C2AF782EE670617824E6705C7822E69028
:10317B002B4193850D83850E82F0E0FF24EDF582C4
:10318B00E43406F583E0902B4193FEEF3333335455
:10319B00F8FFEE2FFF784FF618E66F602B08E675F9
:1031AB00F003A42432F8120859782F1208627845DC
:1031BB001207D3EF2401FFE43EFEE43DFDE43CFCAB
:0A31CB0078451207F712332AD2AF3D
:0631D500900001020992C6
:1036200090FFFD12099212088B850D83850E821280
:10363000086B850D83850E8212088BC2AF78491204
:1036400007D3EF2401FFE43EFEE43DFDE43CFC78BB
:0B365000491207F7D2AF12381180E0DA
:101FBE0090FFFD12099212088B90FFFF120992EF0B
:071FCE00F090FFFD120992E3
:101FD500C2AF7828120859850D83850E8212088BA9
:101FE500850D83850E8212086BE94A4B7003022129
:101FF500C6850D83850E8212086B9000031208E3D7
:102005007828120862D2AF9000041209B612086B44
:10201500C003C002C001850D83850E8212086B12B4
:1020250008949000031209B6E0FF850D83850E82A2
:1020350012086B90000CEF12059E90000BE4120540
:102045009E900009E4F5F01206B99000101209B649
:1020550012086B9000101209B612088B90000C1232
:1020650009B61207DF90000C1209B612080390009A
:10207500071209B612086B9000071209B612088BF1
:102085009000131209B6E0FEA3E0FF9000131209B9
:10209500B6EEF0A3EFF090000A1209B6E0FEA3E059
:1020A500FF90000A1209B6EEF0A3EFF090000312BC
:1020B50009B6E0FF131313541FFE850D83850E82A9
:1020C50012086B90000EEE12059E90000E12055F31
:1020D500902B399390001012059EEF540790000D38
:1020E50012059E90000D12055F902B399390000FFD
:1020F50012059E12374D850D83850E8212086B12CF
:10210500372CC2AF850D83850E8212086B900003B4
:102115001209B6E075F003A42432F8120862782596
:10212500120859C003C002C001850D83850E8212B5
:10213500086B9000031209137B007A007900C00335
:10214500C002C001850D83850E8212086B900006C2
:102155001209137825120859E94A4B601A850D832F
:10216500850E8212086BC003C002C00178251208D3
:1021750059900006120913850D83850E8212086B8E
:10218500782512086290001012055F782246F690B5
:10219500000E12055F24EDF582E43406F583C08355
:1021A500C082E0FF850D83850E8212086B90000FBB
:1021B50012055FFEEF4ED082D083F0D2AF7F008054
:0521C50004D2AF7F46CB
:0621CA00900015020992CD
:0F21D00090FFFD12099212088B90FFFD120992E9
:1021DF009000061209B612086B9000061209B6128B
:1021EF00088B90000C1209B6E0FEA3E0FF90000CE4
:1021FF001209B6EEF0A3EFF09000091209B612081B
:10220F006B850D83850E8212088B850D83850E825B
:10221F00E475F001120874740F12058C900003120C
:10222F0009B612086BAF01850D83850E82E475F038
:10223F0001120874EF12058C9000031209B61208F0
:10224F006BEAFF850D83850E82E475F00112087429
:10225F00EF12058C850D83850E82E475F00112084F
:10226F0074740A12058C850D83850E82E475F00156
:10227F00120874740B12058C850D83850E82E4751C
:10228F00F001120874E412058C850D83850E82759A
:10229F00F001120874E412058C850D83850E82758A
:1022AF00F001120874E412058C850D83850E82757A
:1022BF00F001120874E412058C9000061209B61290
:1022CF00086BAF01850D83850E82E475F00112084E
:1022DF0074EF12058C9000061209B612086BEAFF14
:1022EF00850D83850E82E475F001120874EF1205D7
:1022FF008C850D83850E82E475F0011208747401CC
:10230F0012058C850D83850E82E475F00112087419
:10231F00740412058C850D83850E82E475F001120D
:10232F000874740512058C850D83850E82E475F093
:10233F0001120874740612058C850D83850E82E4D4
:10234F0075F001120874740712058C9000091209B8
:10235F00B612086BE92440F9E43AFF850D83850E28
:10236F0082E475F001120874EF12058C90000912C7
:10237F0009B612086BE92440F9E43AAF01850D83E1
:10238F00850E82E475F001120874EF12058C90002F
:07239F00091209B612086BD8
:0623A60090000E020992F6
:0100090022D4
:01000A0022D3
:10372C0090FFFD12099212088B850D83850E821273
:10373C00086B850D83850E8212088B90000302099D
:01374C0092EA
:01380F002296
:10374D0090FFFD12099212088B850D83850E821252
:10375D00086B850D83850E8212088B90000302097C
:01376D0092C9
:013810002295
:013811002294
:0F29030090FFFD12099212088B90FFFC120992AF
:10291200C2AF90000D1209B6E0FF75F003A4243295
:10292200F8120859E94A4B6003022A17FBFA7901A7
:10293200EF75F003A42432F8120862D2AF90FFFEC2
:10294200120992E4F0A3F090000C1209B612086B7F
:1029520090FFFD12099212088B90000C1209B61218
:10296200086B90FFFD12099212088B90000C12095D
:10297200B612086B1221D0850D83850E8212088B48
:1029820090FFFE120992E4F0A3F0FBFAF990FFFD2A
:1029920012099212088B90FFFC1209921208280069
:1029A20000000090FFFE120992E4F0A3F0FBFAF996
:1029B20090FFFD12099212088B90000E1209B612B6
:1029C200086B90001B1209B6E0FF121FBE900003B5
:1029D2001209B6EFF09000031209B6E07012C2AF0E
:1029E200784D06D2AF7823E6B40120123165801B00
:1029F200C2AF7B007A00790090000D1209B6E07533
:102A0200F003A42432F8120862D2AF900003120934
:092A1200B6E0FF8004D2AF7F287A
:062A1B0090000E0209927A
:1031DB0090FFFE120992EEF0A3EFF0850D83850EA2
:1031EB0082E0FEA3E0FFD39400EE94004050C2AF08
:1031FB00782B12085990000E12055F24EDF582E42E
:10320B003406F583C083C082E0FD782B12085990F9
:10321B00000F12055FF4FCED5CD082D083F0700BD5
:10322B0090001012055FF4782256F6782B1208598D
:10323B00900009EE8FF01206B9D2AF1231659000F3
:04324B0002020992E0
:1034AE0012380F782B088683088682A3E0F8A3E0F3
:1034BE00F988838982E0FD7850A308E0F6DDFA886A
:1034CE0081A3E0F50DA3E0F50E78237601D0E0FFA1
:1034DE00D0E0FED0E0FDD0E0FCD0E0FBD0E0FAD0B2
:1034EE00E0F9D0E0F8D0D0D082D083D0F0D0E0D2C6
:0234FE00AF32EB
:10332A00C0E0C0F0C083C082C0D0E8C0E0E9C0E01D
:10333A00EAC0E0EBC0E0ECC0E0EDC0E0EEC0E0EFD8
:10334A00C0E0E581C39450FD782B08868308868205
:10335A00A3E0F8A3E0F988838982EDF07850A30806
:10336A00E6F0DDFAA3E50DF0A3E50EF012380F78CA
:10337A002B792FE7F60809E7F60809E7F6784E7978
:06338A004FE7F60234B12A
:0A380500E581C39404F58102334C01
:03000B0002345666
:10345600C0E0C0F0C083C082C0D0E8C0E0E9C0E0F0
:10346600EAC0E0EBC0E0ECC0E0EDC0E0EEC0E0EFAB
:10347600C0E0C28C758CDC758A00D28C1237EB12D8
:103486002FE112324FD0E0FFD0E0FED0E0FDD0E0D9
:10349600FCD0E0FBD0E0FAD0E0F9D0E0F8D0D0D014
:0834A60082D083D0F0D0E032A7
:03002300023500A3
:10350000C2AFC0E0C0F0C083C082C0D0E8C0E0E974
:10351000C0E0EAC0E0EBC0E0ECC0E0EDC0E0EEC02F
:10352000E0EFC0E01237EB12000012324FD0E0FFA4
:10353000D0E0FED0E0FDD0E0FCD0E0FBD0E0FAD05F
:10354000E0F9D0E0F8D0D0D082D083D0F0D0E0D273
:02355000AF3298
:1000260002036EE86480F8E933E83360110460F097
:10003600ED33EC337009E8FCE9FDEAFEEBFF220440
:1000460060DED3EB9FEA9EE99DE8C2E78CF0C2F73B
:1000560095F0400CE8CCF8E9CDF9EACEFAEBCFFB07
:1000660012033985D0F05804700320D5B3E8047024
:10007600075002B2D502037892D5EC0460F7E4CCBF
:10008600C0E0C398F8603B94186008400DD0E0FBD0
:10009600020350E4FBFAC9FC8028E830E406E4C910
:1000A600FBE4CAFCE830E305E4C9CACBFCE8540724
:1000B6006010F8C3E913F9EA13FAEB13FBEC13FC2F
:1000C600D8F130F52FC3E49CFCEF9BFFEE9AFEEDD2
:1000D60099FDD0E0FBEF4E4D4C701222DB0302037C
:1000E60075EC2CFCEF33FFEE33FEED33FDED30E720
:1000F600EB020350EF2BFFEE3AFEED39FDD0E0FBAD
:1001060050130BBB0003020378ED13FDEE13FEEF55
:0801160013FFEC13FC0203507F
:10011E00EC4D6011E8497017ED33EC3304600DE4DB
:10012E00FCFFFEFD22E933E8330470F802036E1281
:10013E00033958046009E4CC248150062850090282
:10014E000378284003020375C0E0EB4A7044B9807F
:10015E0006D0E0FB020364EF4E701CBD8008EBFF7F
:10016E00EAFEE9FD80EBE98DF0A4FEE5F002020760
:10017E00E9CDF9EAFEEBFFEF89F0A4FCE5F0CE89BC
:10018E00F0A42EFFE435F0CD89F0A42DFEE435F079
:10019E008067EF4E7005BD80D780C3EF8BF0A4ACA7
:1001AE00F0EE8BF0A42CFCE435F0F8EF8AF0A42CE2
:1001BE00E5F038FCE433CB8DF0A42CFCE5F03BF8F5
:1001CE00EE8AF0A42CFCE5F038F8E433CF89F0A4E5
:1001DE002CFCE5F038CF3400CE89F0A42FFFE5F0EB
:1001EE003EFEE433C98DF0A42EFEE5F039CD8AF043
:1001FE00A42FFFE5F03EFEE43DFD33D0E0FB5007BB
:10020E000BBB000F020378EC2CFCEF33FFEE33FE3A
:06021E00ED33FD02035068
:10022400020378EC5D046005E85904700302036E70
:10023400120339580460F6EC4860F2EC7004FDFED9
:10024400FF22C860DB2481C85009C39860025006AD
:100254000203759850CAF582E9294B4A7005AB82AE
:1002640002036475F0007C1A7880C3EF9BEE9AED6C
:1002740099400DC3EF9BFFEE9AFEED99FDE842F025
:10028400DC23ACF0D0E0FFD0E0FED0E0FDAB822078
:10029400E7101BEB60BAEC2CFCEF33FFEE33FEED02
:1002A40033FD020350E803F830E705C0F075F000B1
:1002B400EF2FFFEE33FEED33FD40B830E7C280AAE6
:1002C40075F020800E75F010800575F0087D007EB5
:1002D400007F003392D530D5031207B4EC334010BD
:1002E400EF33FFEE33FEED33FDEC33FCD5F0ED22BE
:0E02F400E5F0247EA2D513CC92E7CDCEFF22FA
:10030200EDD2E7CD33EC3392D524814006E4FFFEF3
:10031200FDFC22FCE4CFCECDCC24E0501174FF8052
:10032200EDC3CC13CCCD13CDCE13CECF13CF0470EF
:07033200F030D5DE0207B434
:1018DB00E50824C5F582E43405F583E0050822907C
:1018EB0005C23007039005C5E475F00112087402B8
:1018FB0005462000E97F2ED2008018EF540F24906C
:10190B00D43440D4FF30040BEF24BFB41A0050037F
:10191B002461FFE50960021509050CE50C70020551
:10192B000B30070E9005C2E475F001120874EF023C
:10193B00058C0236BA7403D2078003E4C207F5089C
:10194B009005C212088BE4F509F50BF50CE509605F
:10195B00077F2012191E80F5750AFFC201C200C253
:10196B0002C203C205C206C2081218EAFF700D308C
:10197B0007057F0012192FAF0CAE0B22B4255FC2E7
:10198B00D5C2041218EAFF24D0B40A00501A75F01D
:10199B000A780930D50508B6FF0106C6A426F6203D
:1019AB00D5047002D20380D924CFB41A00EF5004AF
:1019BB00C2E5D204021C21D20180C6D20080C0D263
:1019CB000280BCD2D580BAD20580B47F2012191EFA
:1019DB002002077401B5090040F11218DBFF121940
:1019EB001E021958D208D20680951218DBFB12186A
:1019FB00DBFA1218DBF94A4B7006791F7A1D7BFF55
:101A0B0020022EE509602A7E008E82758300120566
:101A1B005F60060EEE650A70F0C2D5EBC0E0EAC05F
:101A2B00E0E9C0E0EE121C82D0E0F9D0E0FAD0E0A1
:101A3B00FB120546FF60AAEBC0E0EAC0E0E9C0E09C
:101A4B0012191ED0E02401F9D0E03400FAD0E0FBEB
:101A5B00E50A0460DCD50AD98087D20280A2121C69
:101A6B006460F7E50A700104120383A90A600DE5AF
:101A7B000A600914F50A121D0CEF60F3EA30E70255
:101A8B00F404C3995079EAF4250A0430E701E4041D
:101A9B00F50A800D121C6460C1EA050A250A1203BF
:101AAB0083EA9005F1F030E701E4250A04D50A0436
:101ABB0020050114121C82E4C0E0121D0C9005F1EC
:101ACB00E0601320E70714F0121906802204F0D00F
:101ADB00E014C0E07F00121906E50A60071218FD3A
:101AEB00150A800B3005031218FDD0E0021958D0EF
:101AFB00E00480C4121C64609EE50A041203839008
:101B0B0005F1EAF0E50A2005026001042404121C29
:011B1B008247
:101B1C0074FF04C0E0121D0C121906E50A20050220
:101B2C0060031218FDD0E0B50AE87F451219109039
:101B3C0005F1E07F2B30E7047F2DF404C0E012198F
:101B4C001ED0E075F00A84C0F0121907D0E012190B
:101B5C0007021958791080027908C206C208800859
:101B6C00D2D5790A8004790AC2D5E50A047002F547
:101B7C000AE4FAFDFEFF1218DBFC7B0820011312AD
:101B8C0018DBFD7B1030000A1218DBFE1218DBFF8D
:101B9C007B20EC3382D592D55013C3E43000069FE2
:101BAC00FFE49EFEE42001039DFDE49CFCE4CBF8E5
:101BBC00C201EC700CCFCECDCCE824F8F870F380D9
:101BCC0017C3EF33FFEE33FEED33FDEC33FCEB3399
:101BDC00FB994002FB0FD8E9EB300105F8D0E0C4CB
:101BEC0048B201C0E00AEC4D4E4F78207B0070C229
:101BFC00EAB50A0040BCC0E0121C84D0F0D0E02052
:101C0C000104C4C0E0C4B201C0F0121907D0F0D571
:101C1C00F0EB02195812096C19F5531B605819C6D0
:101C2C004C19C2421B644F1B6C441B6C4919DB439F
:101C3C001B72551A9F461AFF451A69471D3F5019CA
:101C4C00CA2D19CE2E19F12B19D22319EF201D28CC
:101C5C002A198A48000019E9E50AB4FF03750A0637
:101C6C001218DBFC1218DBFD1218DBFE1218DBFF5E
:101C7C009005EA0203C0790AA2D5200314300509A5
:101C8C00B910020404B9080104A2D52006025001BF
:101C9C00042002689202B509005034C0E07F203065
:101CAC0003197F30A20272067205500F121CDBC2A0
:101CBC0002C206C205C2087F30800F300503E9C09E
:101CCC00E012191E300503D0E0F9D0E0B509CC3094
:101CDC0005177F30B9100C12191E7F583004077F7E
:101CEC00788003B9080312191E3002057F2D0219E2
:101CFC001E7F202008F87F2B2006F322920280CF33
:101D0C007F00B40700500B24EAF582E43405F58318
:101D1C00E0FF22286E756C6C2900D2011218DB30A2
:101D2C0001F8C201780930D50108F602198A2D5044
:101D3C004349581218DB2403B405004001E4901DFC
:101D4C003A9312190F743A12190FD203750904023F
:021D5C001B600A
:10359C00D2009004F312088B1235D8C0E0FF12371A
:1035AC00C8D0E040F3122E41400122ECC0E0EDC047
:1035BC00E0EEC0E0EFC0E01235D8D0F0AFF0D0F0C4
:1035CC00AEF0D0F0ADF0D0F0ACF080D9E475F001F5
:0935DC009004F312087402054684
:10033900E9D2E7C933E833F892D5EDD2E7CD33EC0A
:0703490033FC5002B2D52283
:10035000EC30E7100FBF000C0EBE00080DBD00040E
:100360000BEB6014A2D5EB13FCED92E7FD2274FFBA
:10037000FCFDFEFF22E480F8A2D574FF13FC7D8013
:03038000E480EF27
:10038300F920E73624F950037907E4F42402FBE566
:1003930082158270021583DBF6E024FB501BE960B3
:1003A30014E4F0E582158270021583E004F0B40AC8
:0D03B30008E4F0D9EE7401F00A22C2D52250
:1003C000ED33EC3392D5FA602AB4FF33EDC2E77B0C
:1003D000FF60067A0379E5E4227A0379EE20D504FA
:1003E0007A0379E9224E614E002B494E46002D4991
:1003F0004E4600E47A08F0A3DAFC7B00740722C0C2
:1004000083C082ECC0E0EDC0E0EEC0E0EFC0E0EA07
:1004100075F010A4CAABF075F04DA42BFBE435F0D9
:10042000FCEA2410FAEB34C5FBEC34D9FCEDC2E74E
:10043000FF75F056A4F42411C5F0F434C58FF0A470
:100440002AE5F03BE43CF020E714120506D0E0FF7B
:10045000D0E0FED0E0FDD0E0FC1202278014F404CE
:10046000120506D0E0FFD0E0FED0E0FDD0E0FC12A7
:10047000011ED082D083E0FAEDD2E7CD33EC3324F5
:1004800082FBE4C3CF33CFCE33CECD33CD33DBF3DA
:100490007B0775F00A846004F0A31B0AE5F0F0A363
:1004A0008FF0740AA4FFACF08EF0740AA42CFEAC9A
:1004B000F050010C8DF0740AA42CFDE435F0F0A38B
:0504C000DBDE740722E1
:102E2E00C201C202C203C204F9E4F508F509FCFDB1
:102E3E00FEFFE91000EA20030CB42D04D203D322C6
:102E4E00B42B02D32224D0504794095041240A3087
:102E5E000415F88509F0740AA42872E74051C5F0EC
:102E6E00704D85F009D322D202C0E0E4FBFA79203E
:102E7E00784112011EECF8EDF9EEFAEFFBD0E0FC12
:102E8E00E41202CE12002D3001B41508D322240A0A
:102E9E00200420B4FE0720011AD201D32224EB60B5
:102EAE000424E0700EA2039201D204C203D322C303
:102EBE0002036EE430040BE509300302F404A201B0
:102ECE0092033002EA250820D2E5A2E792045002CE
:102EDE00F404B4260050D8CCC0E0EDC0E0EEC0E063
:102EEE00EFC0E0EC120506D0E0FFD0E0FED0E0FD32
:102EFE00D0E0FC20040512011E80031202273003CD
:062F0E00031204C5C322FA
:1004C500ED33EC33600A047003BD8004ECB2E7FC45
:0104D5002204
:1004D6003F8000004120000042C80000447A00002E
:1004E600461C400047C35000497424004B189680B0
:1004F6004CBEBC205A0E1BCA6753C21C749DC5AEA7
:10050600FB60065407601C2323120534EB54386045
:100516000912052012052F12011EECF8EDF9EEFA6C
:10052600EFCB22EB12052F80F1543803241C9004E4
:10053600D6FE93FC0EEE93FD0EEE930ECE93FF22A7
:10054600BB010689828A83E0225002E722BBFE02B3
:09055600E32289828A83E49322E6
:10055F00BB010CE58229F582E5833AF583E0225051
:10056F0006E92582F8E622BBFE06E92582F8E2229B
:0D057F00E58229F582E5833AF583E49322B5
:10058C00BB010689828A83F0225002F722BBFE014E
:02059C00F32248
:10059E00F8BB010DE58229F582E5833AF583E8F093
:1005AE00225006E92582C8F622BBFE05E92582C83F
:0205BE00F22227
:1005C000EF8DF0A4A8F0CF8CF0A428CE8DF0A42E4F
:0205D000FE2209
:1005D200C2D5EC30E709B2D5E4C39DFDE49CFCEE44
:1005E20030E715B2D5E4C39FFFE49EFE1209C3C3F0
:1005F200E49DFDE49CFC80031209C330D507C3E4EB
:060602009FFFE49EFE22B2
:10060800C5F0F8A3E028F0C5F0F8E582158270027D
:060618001583E038F0221A
:10061E00A3F8E0C5F025F0F0E5821582700215838F
:06062E00E0C838F0E822EC
:10063400BB0110E58229F582E5833AF583E0F5F004
:10064400A3E0225009E92582F886F008E622BBFEE1
:100654000AE92582F8E2F5F008E222E5832AF58327
:08066400E993F5F0A3E99322EC
:10066C00BB010DC58229C582C5833AC58302060824
:10067C005011C58229F808E5F026F618F5F0E58248
:10068C0036F622BBFE11C58229F808E225F0F5F0FA
:10069C00F218E23582F222F8E58229F582E5832A06
:0D06AC00F58374019325F0F5F0E4933822F6
:1006B900F8BB0111E58229F582E5833AF583E8F073
:1006C900E5F0A3F0225009E92582C8F608A6F02230
:0D06D900BBFE09E92582C8F2E5F008F22217
:1006E60075F008758200EF2FFFEE33FECD33CDCCCB
:1006F60033CCC58233C5829BED9AEC99E58298404E
:100706000CF582EE9BFEED9AFDEC99FC0FD5F0D62A
:10071600E4CEFBE4CDFAE4CCF9A88222B800C1B954
:100726000059BA002DEC8BF084CFCECDFCE5F0CB92
:10073600F97818EF2FFFEE33FEED33FDEC33FCEBCB
:1007460033FB10D703994004EB99FB0FD8E5E4F986
:10075600FA227818EF2FFFEE33FEED33FDEC33FC73
:10076600C933C910D7059BE99A4007EC9BFCE99A67
:10077600F90FD8E0E4C9FAE4CCFB2275F010EF2FAC
:10078600FFEE33FEED33FDCC33CCC833C810D707AC
:100796009BEC9AE899400AED9BFDEC9AFCE899F8E7
:0E07A6000FD5F0DAE4CDFBE4CCFAE4C8F9227A
:0E07B400C3E49FFFE49EFEE49DFDE49CFC2256
:1007C200EB9FF5F0EA9E42F0E99D42F0E89C45F08D
:0107D2002204
:0C07D300E6FC08E6FD08E6FE08E6FF2252
:0C07DF00E0FCA3E0FDA3E0FEA3E0FF228D
:0C07EB00E0F8A3E0F9A3E0FAA3E0FB2291
:0C07F700ECF608EDF608EEF608EFF6222E
:0C080300ECF0A3EDF0A3EEF0A3EFF02268
:10080F00D083D082E493F608740193F608740293B0
:09081F00F608740393F6740473E7
:10082800A8828583F0D083D08212083F12083F1235
:10083800083F12083FE473E493A3C583C5F0C5835A
:10084800C8C582C8F0A3C583C5F0C583C8C582C81A
:01085800227D
:09085900E6FB08E6FA08E6F922C4
:09086200EBF608EAF608E9F622BB
:09086B00E0FBA3E0FAA3E0F9228E
:10087400F8E0FBA3A3E0F925F0F0E582158270020D
:070884001583E0FA38F022B1
:09088B00EBF0A3EAF0A3E9F0226E
:10089400BB011A89828A83D0F0D0E0F8D0E0F9D085
:1008A400E0FAD0E0FBE8C0E0C0F002088B5016E9A3
:1008B400F8D083D082D0E0F9D0E0FAD0E0FBC08257
:1008C400C083020862BBFE16E9F8D083D082D0E070
:0F08D400F9D0E0FAD0E0FBC082C083020A2122F3
:1008E300BB010DE58229F582E5833AF58302086BA6
:1008F3005007E92582F8020859BBFE07E92582F86B
:10090300020A18E58229F582E5833AF583020A2A69
:10091300BB0120E58229F582E5833AF583D0F0D047
:10092300E0F8D0E0F9D0E0FAD0E0FBE8C0E0C0F0B6
:1009330002088B5018E92582F8D083D082D0E0F9E1
:10094300D0E0FAD0E0FBC082C083020862BBFE188D
:10095300E92582F8D083D082D0E0F9D0E0FAD0E064
:09096300FBC082C083020A2122BC
:10096C00D083D082F8E4937012740193700DA3A31A
:10097C0093F8740193F5828883E47374029368602E
:06098C00EFA3A3A380DF2E
:10099200E50E2582F582E50D3583F583B50D0485D7
:1009A200820E2210AF0685820EF50D2285820EF58B
:0409B2000DD2AF2291
:0D09B600E50E2582F582E50D3583F58322DF
:1036BA00EFB40A07740D1236C5740A309811A89926
:1036CA00B8130CC2983098FDA899C298B811F63070
:0736DA0099FDC299F5992248
:1037C800EFC394094005EF940E4004EFB42003D3EF
:0437D8008001C32287
:1009C300BC000BBE0029EF8DF084FFADF022E4CC18
:1009D300F875F008EF2FFFEE33FEEC33FCEE9DECE1
:1009E300984005FCEE9DFE0FD5F0E9E4CEFD22ED27
:1009F300F8F5F0EE8420D21CFEADF075F008EF2F71
:100A0300FFED33FD4007985006D5F0F222C398FD61
:050A13000FD5F0EA22FE
:090A1800E2FB08E2FA08E2F9220F
:090A2100EBF208EAF208E9F22206
:0C0A2A00E493FB740193FA740293F92228
:00000001FF
